{
  "contractName": "store",
  "abi": [
    {
      "inputs": [
        {
          "internalType": "string",
          "name": "_storeName",
          "type": "string"
        },
        {
          "internalType": "address",
          "name": "_storeOwner",
          "type": "address"
        },
        {
          "internalType": "uint256",
          "name": "_feePercent",
          "type": "uint256"
        }
      ],
      "stateMutability": "nonpayable",
      "type": "constructor"
    },
    {
      "anonymous": false,
      "inputs": [
        {
          "indexed": true,
          "internalType": "address",
          "name": "buyer",
          "type": "address"
        },
        {
          "indexed": true,
          "internalType": "address",
          "name": "seller",
          "type": "address"
        },
        {
          "indexed": false,
          "internalType": "uint256",
          "name": "amount",
          "type": "uint256"
        },
        {
          "indexed": false,
          "internalType": "uint256",
          "name": "months",
          "type": "uint256"
        },
        {
          "indexed": false,
          "internalType": "uint256",
          "name": "timestamp",
          "type": "uint256"
        }
      ],
      "name": "Sale",
      "type": "event"
    },
    {
      "anonymous": false,
      "inputs": [
        {
          "indexed": true,
          "internalType": "address",
          "name": "receiver",
          "type": "address"
        },
        {
          "indexed": false,
          "internalType": "uint256",
          "name": "amount",
          "type": "uint256"
        },
        {
          "indexed": false,
          "internalType": "uint256",
          "name": "timestamp",
          "type": "uint256"
        }
      ],
      "name": "Withdrawal",
      "type": "event"
    },
    {
      "inputs": [],
      "name": "feePercent",
      "outputs": [
        {
          "internalType": "uint256",
          "name": "",
          "type": "uint256"
        }
      ],
      "stateMutability": "view",
      "type": "function",
      "constant": true
    },
    {
      "inputs": [
        {
          "internalType": "address",
          "name": "",
          "type": "address"
        }
      ],
      "name": "salesOf",
      "outputs": [
        {
          "internalType": "uint256",
          "name": "",
          "type": "uint256"
        }
      ],
      "stateMutability": "view",
      "type": "function",
      "constant": true
    },
    {
      "inputs": [],
      "name": "storeAcc",
      "outputs": [
        {
          "internalType": "uint256",
          "name": "",
          "type": "uint256"
        }
      ],
      "stateMutability": "view",
      "type": "function",
      "constant": true
    },
    {
      "inputs": [],
      "name": "storeName",
      "outputs": [
        {
          "internalType": "string",
          "name": "",
          "type": "string"
        }
      ],
      "stateMutability": "view",
      "type": "function",
      "constant": true
    },
    {
      "inputs": [],
      "name": "storeOwner",
      "outputs": [
        {
          "internalType": "address",
          "name": "",
          "type": "address"
        }
      ],
      "stateMutability": "view",
      "type": "function",
      "constant": true
    },
    {
      "inputs": [],
      "name": "storeSales",
      "outputs": [
        {
          "internalType": "uint256",
          "name": "",
          "type": "uint256"
        }
      ],
      "stateMutability": "view",
      "type": "function",
      "constant": true
    },
    {
      "inputs": [
        {
          "internalType": "address",
          "name": "seller",
          "type": "address"
        },
        {
          "internalType": "string",
          "name": "purpose",
          "type": "string"
        },
        {
          "internalType": "uint256",
          "name": "months",
          "type": "uint256"
        }
      ],
      "name": "payNow",
      "outputs": [
        {
          "internalType": "bool",
          "name": "success",
          "type": "bool"
        }
      ],
      "stateMutability": "payable",
      "type": "function",
      "payable": true
    },
    {
      "inputs": [],
      "name": "getAllSales",
      "outputs": [
        {
          "components": [
            {
              "internalType": "address",
              "name": "buyer",
              "type": "address"
            },
            {
              "internalType": "address",
              "name": "seller",
              "type": "address"
            },
            {
              "internalType": "uint256",
              "name": "amount",
              "type": "uint256"
            },
            {
              "internalType": "uint256",
              "name": "months",
              "type": "uint256"
            },
            {
              "internalType": "string",
              "name": "purpose",
              "type": "string"
            },
            {
              "internalType": "uint256",
              "name": "timestamp",
              "type": "uint256"
            }
          ],
          "internalType": "struct store.SalesStruct[]",
          "name": "",
          "type": "tuple[]"
        }
      ],
      "stateMutability": "view",
      "type": "function",
      "constant": true
    }
  ],
  "bytecode": "0x60c06040523480156200001157600080fd5b506040516200185338038062001853833981810160405281019062000037919062000389565b82600190805190602001906200004f9291906200009c565b508173ffffffffffffffffffffffffffffffffffffffff1660808173ffffffffffffffffffffffffffffffffffffffff16815250508060a081815250506000808190555050505062000469565b828054620000aa9062000433565b90600052602060002090601f016020900481019282620000ce57600085556200011a565b82601f10620000e957805160ff19168380011785556200011a565b828001600101855582156200011a579182015b8281111562000119578251825591602001919060010190620000fc565b5b5090506200012991906200012d565b5090565b5b80821115620001485760008160009055506001016200012e565b5090565b6000604051905090565b600080fd5b600080fd5b600080fd5b600080fd5b6000601f19601f8301169050919050565b7f4e487b7100000000000000000000000000000000000000000000000000000000600052604160045260246000fd5b620001b5826200016a565b810181811067ffffffffffffffff82111715620001d757620001d66200017b565b5b80604052505050565b6000620001ec6200014c565b9050620001fa8282620001aa565b919050565b600067ffffffffffffffff8211156200021d576200021c6200017b565b5b62000228826200016a565b9050602081019050919050565b60005b838110156200025557808201518184015260208101905062000238565b8381111562000265576000848401525b50505050565b6000620002826200027c84620001ff565b620001e0565b905082815260208101848484011115620002a157620002a062000165565b5b620002ae84828562000235565b509392505050565b600082601f830112620002ce57620002cd62000160565b5b8151620002e08482602086016200026b565b91505092915050565b600073ffffffffffffffffffffffffffffffffffffffff82169050919050565b60006200031682620002e9565b9050919050565b620003288162000309565b81146200033457600080fd5b50565b60008151905062000348816200031d565b92915050565b6000819050919050565b62000363816200034e565b81146200036f57600080fd5b50565b600081519050620003838162000358565b92915050565b600080600060608486031215620003a557620003a462000156565b5b600084015167ffffffffffffffff811115620003c657620003c56200015b565b5b620003d486828701620002b6565b9350506020620003e78682870162000337565b9250506040620003fa8682870162000372565b9150509250925092565b7f4e487b7100000000000000000000000000000000000000000000000000000000600052602260045260246000fd5b600060028204905060018216806200044c57607f821691505b6020821081141562000463576200046262000404565b5b50919050565b60805160a0516113af620004a460003960008181610440015261057b015260008181610464015281816104ea015261065101526113af6000f3fe60806040526004361061007b5760003560e01c8063818fb3e01161004e578063818fb3e01461012c578063dd88060914610157578063e9b44eeb14610194578063fe4c3023146101bf5761007b565b8063333969171461008057806340152d5c146100ab578063521936e6146100d65780637fd6f15c14610101575b600080fd5b34801561008c57600080fd5b506100956101ef565b6040516100a29190610c66565b60405180910390f35b3480156100b757600080fd5b506100c06103aa565b6040516100cd9190610c97565b60405180910390f35b3480156100e257600080fd5b506100eb6103b0565b6040516100f89190610cfc565b60405180910390f35b34801561010d57600080fd5b5061011661043e565b6040516101239190610c97565b60405180910390f35b34801561013857600080fd5b50610141610462565b60405161014e9190610d2d565b60405180910390f35b34801561016357600080fd5b5061017e60048036038101906101799190610d88565b610486565b60405161018b9190610c97565b60405180910390f35b3480156101a057600080fd5b506101a961049e565b6040516101b69190610c97565b60405180910390f35b6101d960048036038101906101d49190610f16565b6104a4565b6040516101e69190610fa0565b60405180910390f35b60606004805480602002602001604051908101604052809291908181526020016000905b828210156103a157838290600052602060002090600602016040518060c00160405290816000820160009054906101000a900473ffffffffffffffffffffffffffffffffffffffff1673ffffffffffffffffffffffffffffffffffffffff1673ffffffffffffffffffffffffffffffffffffffff1681526020016001820160009054906101000a900473ffffffffffffffffffffffffffffffffffffffff1673ffffffffffffffffffffffffffffffffffffffff1673ffffffffffffffffffffffffffffffffffffffff168152602001600282015481526020016003820154815260200160048201805461030690610fea565b80601f016020809104026020016040519081016040528092919081815260200182805461033290610fea565b801561037f5780601f106103545761010080835404028352916020019161037f565b820191906000526020600020905b81548152906001019060200180831161036257829003601f168201915b5050505050815260200160058201548152505081526020019060010190610213565b50505050905090565b60005481565b600180546103bd90610fea565b80601f01602080910402602001604051908101604052809291908181526020018280546103e990610fea565b80156104365780601f1061040b57610100808354040283529160200191610436565b820191906000526020600020905b81548152906001019060200180831161041957829003601f168201915b505050505081565b7f000000000000000000000000000000000000000000000000000000000000000081565b7f000000000000000000000000000000000000000000000000000000000000000081565b60036020528060005260406000206000915090505481565b60025481565b60008034116104e8576040517f08c379a00000000000000000000000000000000000000000000000000000000081526004016104df90611068565b60405180910390fd5b7f000000000000000000000000000000000000000000000000000000000000000073ffffffffffffffffffffffffffffffffffffffff163373ffffffffffffffffffffffffffffffffffffffff161415610577576040517f08c379a000000000000000000000000000000000000000000000000000000000815260040161056e906110d4565b60405180910390fd5b60007f00000000000000000000000000000000000000000000000000000000000000006064346105a79190611152565b6105b19190611183565b9050600081346105c191906111dd565b9050346000808282546105d49190611211565b925050819055506001600260008282546105ee9190611211565b925050819055506001600360008873ffffffffffffffffffffffffffffffffffffffff1673ffffffffffffffffffffffffffffffffffffffff16815260200190815260200160002060008282546106459190611211565b925050819055506106767f000000000000000000000000000000000000000000000000000000000000000083610847565b506106818682610847565b5060046040518060c001604052803373ffffffffffffffffffffffffffffffffffffffff1681526020018873ffffffffffffffffffffffffffffffffffffffff16815260200183815260200186815260200187815260200142815250908060018154018082558091505060019003906000526020600020906006020160009091909190915060008201518160000160006101000a81548173ffffffffffffffffffffffffffffffffffffffff021916908373ffffffffffffffffffffffffffffffffffffffff16021790555060208201518160010160006101000a81548173ffffffffffffffffffffffffffffffffffffffff021916908373ffffffffffffffffffffffffffffffffffffffff160217905550604082015181600201556060820151816003015560808201518160040190805190602001906107c4929190610985565b5060a0820151816005015550508573ffffffffffffffffffffffffffffffffffffffff163373ffffffffffffffffffffffffffffffffffffffff167fa01acc7c1db891dde77f4b2de71dfef0bb37ef91efc3d806c034d18e784e157083874260405161083293929190611267565b60405180910390a36001925050509392505050565b600081600054101561088e576040517f08c379a0000000000000000000000000000000000000000000000000000000008152600401610885906112ea565b60405180910390fd5b610898838361090a565b816000808282546108a991906111dd565b925050819055508273ffffffffffffffffffffffffffffffffffffffff167fdf273cb619d95419a9cd0ec88123a0538c85064229baa6363788f743fff90deb83426040516108f892919061130a565b60405180910390a26001905092915050565b60008273ffffffffffffffffffffffffffffffffffffffff168260405161093090611364565b60006040518083038185875af1925050503d806000811461096d576040519150601f19603f3d011682016040523d82523d6000602084013e610972565b606091505b505090508061098057600080fd5b505050565b82805461099190610fea565b90600052602060002090601f0160209004810192826109b357600085556109fa565b82601f106109cc57805160ff19168380011785556109fa565b828001600101855582156109fa579182015b828111156109f95782518255916020019190600101906109de565b5b509050610a079190610a0b565b5090565b5b80821115610a24576000816000905550600101610a0c565b5090565b600081519050919050565b600082825260208201905092915050565b6000819050602082019050919050565b600073ffffffffffffffffffffffffffffffffffffffff82169050919050565b6000610a7f82610a54565b9050919050565b610a8f81610a74565b82525050565b6000819050919050565b610aa881610a95565b82525050565b600081519050919050565b600082825260208201905092915050565b60005b83811015610ae8578082015181840152602081019050610acd565b83811115610af7576000848401525b50505050565b6000601f19601f8301169050919050565b6000610b1982610aae565b610b238185610ab9565b9350610b33818560208601610aca565b610b3c81610afd565b840191505092915050565b600060c083016000830151610b5f6000860182610a86565b506020830151610b726020860182610a86565b506040830151610b856040860182610a9f565b506060830151610b986060860182610a9f565b5060808301518482036080860152610bb08282610b0e565b91505060a0830151610bc560a0860182610a9f565b508091505092915050565b6000610bdc8383610b47565b905092915050565b6000602082019050919050565b6000610bfc82610a28565b610c068185610a33565b935083602082028501610c1885610a44565b8060005b85811015610c545784840389528151610c358582610bd0565b9450610c4083610be4565b925060208a01995050600181019050610c1c565b50829750879550505050505092915050565b60006020820190508181036000830152610c808184610bf1565b905092915050565b610c9181610a95565b82525050565b6000602082019050610cac6000830184610c88565b92915050565b600082825260208201905092915050565b6000610cce82610aae565b610cd88185610cb2565b9350610ce8818560208601610aca565b610cf181610afd565b840191505092915050565b60006020820190508181036000830152610d168184610cc3565b905092915050565b610d2781610a74565b82525050565b6000602082019050610d426000830184610d1e565b92915050565b6000604051905090565b600080fd5b600080fd5b610d6581610a74565b8114610d7057600080fd5b50565b600081359050610d8281610d5c565b92915050565b600060208284031215610d9e57610d9d610d52565b5b6000610dac84828501610d73565b91505092915050565b600080fd5b600080fd5b7f4e487b7100000000000000000000000000000000000000000000000000000000600052604160045260246000fd5b610df782610afd565b810181811067ffffffffffffffff82111715610e1657610e15610dbf565b5b80604052505050565b6000610e29610d48565b9050610e358282610dee565b919050565b600067ffffffffffffffff821115610e5557610e54610dbf565b5b610e5e82610afd565b9050602081019050919050565b82818337600083830152505050565b6000610e8d610e8884610e3a565b610e1f565b905082815260208101848484011115610ea957610ea8610dba565b5b610eb4848285610e6b565b509392505050565b600082601f830112610ed157610ed0610db5565b5b8135610ee1848260208601610e7a565b91505092915050565b610ef381610a95565b8114610efe57600080fd5b50565b600081359050610f1081610eea565b92915050565b600080600060608486031215610f2f57610f2e610d52565b5b6000610f3d86828701610d73565b935050602084013567ffffffffffffffff811115610f5e57610f5d610d57565b5b610f6a86828701610ebc565b9250506040610f7b86828701610f01565b9150509250925092565b60008115159050919050565b610f9a81610f85565b82525050565b6000602082019050610fb56000830184610f91565b92915050565b7f4e487b7100000000000000000000000000000000000000000000000000000000600052602260045260246000fd5b6000600282049050600182168061100257607f821691505b6020821081141561101657611015610fbb565b5b50919050565b7f4574686572732063616e6e6f74206265207a65726f2100000000000000000000600082015250565b6000611052601683610cb2565b915061105d8261101c565b602082019050919050565b6000602082019050818103600083015261108181611045565b9050919050565b7f53616c65204e6f7420616c6c6f77656400000000000000000000000000000000600082015250565b60006110be601083610cb2565b91506110c982611088565b602082019050919050565b600060208201905081810360008301526110ed816110b1565b9050919050565b7f4e487b7100000000000000000000000000000000000000000000000000000000600052601260045260246000fd5b7f4e487b7100000000000000000000000000000000000000000000000000000000600052601160045260246000fd5b600061115d82610a95565b915061116883610a95565b925082611178576111776110f4565b5b828204905092915050565b600061118e82610a95565b915061119983610a95565b9250817fffffffffffffffffffffffffffffffffffffffffffffffffffffffffffffffff04831182151516156111d2576111d1611123565b5b828202905092915050565b60006111e882610a95565b91506111f383610a95565b92508282101561120657611205611123565b5b828203905092915050565b600061121c82610a95565b915061122783610a95565b9250827fffffffffffffffffffffffffffffffffffffffffffffffffffffffffffffffff0382111561125c5761125b611123565b5b828201905092915050565b600060608201905061127c6000830186610c88565b6112896020830185610c88565b6112966040830184610c88565b949350505050565b7f496e737566666963656e742046756e6421000000000000000000000000000000600082015250565b60006112d4601183610cb2565b91506112df8261129e565b602082019050919050565b60006020820190508181036000830152611303816112c7565b9050919050565b600060408201905061131f6000830185610c88565b61132c6020830184610c88565b9392505050565b600081905092915050565b50565b600061134e600083611333565b91506113598261133e565b600082019050919050565b600061136f82611341565b915081905091905056fea2646970667358221220512538fecfdc6dbeb09b59265d41f15ed6d3a011d018caeb1f05d20d1927526264736f6c634300080b0033",
  "immutableReferences": {
    "36": [
      {
        "length": 32,
        "start": 1124
      },
      {
        "length": 32,
        "start": 1258
      },
      {
        "length": 32,
        "start": 1617
      }
    ],
    "42": [
      {
        "length": 32,
        "start": 1088
      },
      {
        "length": 32,
        "start": 1403
      }
    ]
  },
  "source": "// SPDX-License-Identifier: MIT\r\npragma solidity ^0.8.11;\r\n\r\ncontract store {\r\n    address public immutable storeOwner;\r\n    uint256 public storeAcc;\r\n    string public storeName;\r\n    uint256 public immutable feePercent;\r\n    uint256 public storeSales;\r\n\r\n    mapping(address => uint256) public salesOf;\r\n\r\n    event Sale(\r\n        address indexed buyer,\r\n        address indexed seller,\r\n        uint256 amount,\r\n        uint256 months,\r\n        uint256 timestamp\r\n    );\r\n\r\n    event Withdrawal(\r\n        address indexed receiver,\r\n        uint256 amount,\r\n        uint256 timestamp\r\n    );\r\n\r\n    struct SalesStruct {\r\n        address buyer;\r\n        address seller;\r\n        uint256 amount;\r\n        uint256 months;\r\n        string purpose;\r\n        uint256 timestamp;\r\n    }\r\n    SalesStruct[] sales;\r\n\r\n    constructor(\r\n        string memory _storeName,\r\n        address _storeOwner,\r\n        uint256 _feePercent\r\n    ) {\r\n        storeName = _storeName;\r\n        storeOwner = _storeOwner;\r\n        feePercent = _feePercent;\r\n        storeAcc = 0;\r\n    }\r\n\r\n    function payNow(address seller, string memory purpose, uint256 months)\r\n        public\r\n        payable\r\n        returns (bool success)\r\n    {\r\n        require(msg.value > 0, \"Ethers cannot be zero!\");\r\n        require(msg.sender != storeOwner, \"Sale Not allowed\");\r\n\r\n        uint256 fee = (msg.value / 100) * feePercent;\r\n        uint256 cost = msg.value - fee;\r\n\r\n        storeAcc += msg.value;\r\n        storeSales += 1;\r\n        salesOf[seller] += 1;\r\n\r\n        withdrawMoneyTo(storeOwner, fee);\r\n        withdrawMoneyTo(seller, cost);\r\n\r\n        sales.push(\r\n            SalesStruct(msg.sender, seller, cost, months, purpose, block.timestamp)\r\n        );\r\n\r\n        emit Sale(msg.sender, seller, cost, months, block.timestamp);\r\n        return true;\r\n    }\r\n\r\n    function _payTo(address _to, uint256 _amount) internal {\r\n        (bool success1, ) = payable(_to).call{value: _amount}(\"\");\r\n        require(success1);\r\n    }\r\n\r\n    function withdrawMoneyTo(address receiver, uint256 amount)\r\n        internal\r\n        returns (bool success)\r\n    {\r\n        require(storeAcc >= amount, \"Insufficent Fund!\");\r\n        _payTo(receiver, amount);\r\n        storeAcc -= amount;\r\n\r\n        emit Withdrawal(receiver, amount, block.timestamp);\r\n        return true;\r\n    }\r\n\r\n    function getAllSales() public view returns (SalesStruct[] memory) {\r\n        return sales;\r\n    }\r\n}\r\n",
  "sourcePath": "C:\\Users\\Zea\\Documents\\GitHub\\GPM10\\contracts\\contract.sol",
  "compiler": {
    "name": "solc",
    "version": "0.8.11+commit.d7f03943.Emscripten.clang"
  },
  "schemaVersion": "3.4.11",
  "updatedAt": "2023-02-07T16:15:18.209Z",
  "networkType": "ethereum",
  "devdoc": {
    "kind": "dev",
    "methods": {},
    "version": 1
  },
  "userdoc": {
    "kind": "user",
    "methods": {},
    "version": 1
  }
}